:020000020000FC
:1000000000C006E00093C20010E007E61093C500B0
:100010000093C40008E10093C10086EA95E0A6E3DE
:10002000B1E2082F192F019F80010E943C000AE0D5
:100030000E943C000FE3010F0E943C000AE00E9476
:100040003C000A2F1B2F011B1CE3010F0E943C00E8
:100050000AE00E943C000B2F1A2F011B20913F0049
:1000600020FD07C01CE3010F0E943C000AE00E9433
:100070003C000E944300D5CF2091C00025FBE6F74D
:100080000093C6000895D4E6E4E6F7EC0000000013
:10009000000000000000FA95C9F7EA95B1F7DA957B
:1000A00099F7089550E0C9E004C0551F571708F0AC
:0E00B000571B661FCA95C9F76095462F089525
:00000001FF
