:020000020000FC
:1000000000C006E00093C20010E007E61093C500B0
:100010000093C40008E10093C1003AE00FEF23E031
:10002000039F8001239F202D120FD12FC02FEEEFB1
:10003000F7E00E943C0010E3092F010F0E94260008
:100040000AE00E9426000E942D00E7CF2091C00008
:1000500025FBE6F70093C6000895D4E6E4E6F7EC46
:1000600000000000000000000000FA95C9F7EA95C2
:10007000B1F7DA9599F7089590E0E03011F4F03097
:1000800031F0DE01CE1BDF0B10F09395FACF08950F
:00000001FF
